:02000002B0004C
:1040000000400B008C530B00000006000C00050262
:084010000401E50C00000000B2
:0440180088500B00C1
:10401C0009480A49884208B505D0094A824202D0AB
:10402C00121A00F079FF0748074A0021121A00F013
:10403C0081FF014808BD00BF34E60320F8520B0095
:10404C00A0E60320A0E60320EDE7032070B5074EA1
:10405C00074C00F0A3FBA41BA4080025AC4200D124
:10406C0070BD56F8043B98470135F7E7AC520B008E
:10407C00D0520B0000F013B808B500F021F8BDE8E1
:10408C00084000F043BB00F01FBA00F025BA0078DE
:10409C00B0FA80F04009704701230370704708B5EF
:1040AC0000210E2000F066FE0121052000F062FECA
:1040BC0000F07CFCBDE808404FF4165100F06ABCDF
:1040CC002DE9F3411C4DDFF87C801C4F0E2000F0D5
:1040DC0062FE2B68C8F80000984226DA286000F0CF
:1040EC0065FC2C68002C064624DA2D2100F09AFA87
:1040FC0061420A22304600F0A4FA304600F095FAEC
:10410C0000F054FC0E4900F089FAFF233968009343
:10411C002A68D8F80000002300F0C4FA01460520F4
:10412C0002B0BDE8F04100F04DBE3B689842C8BFFC
:10413C003860D4E72146DCE7B0E60320B4E6032080
:10414C009C500B00A0E6032010B5074B074A9A6061
:10415C000024C3E90044032000F02AF92146012081
:10416C00BDE8104000F02CB9A4E603200000FFFFCE
:10417C0008B5024B1B689B68019308BD68020300DD
:10418C0008B5024B1B68DB68019308BD680203008D
:10419C0008B5024B1B685B68019308BD2C02030039
:1041AC0008B5024B1B689B68019308BD2C020300E9
:1041BC0008B5024B1B68DB68019308BD2C02030099
:1041CC0008B5024B1B689B6A019308BD2C020300C7
:1041DC0008B5024B1B681B6B019308BD2C02030036
:1041EC0008B5024B1B689B6F019308BD2C020300A2
:1041FC0008B5024B1B685B68019308BD18020300ED
:10420C0008B5024B1B685B69019308BD18020300DB
:10421C0008B5024B1B685B6C019308BD4802030098
:10422C0008B5024B1B685B69019308BD640203006F
:10423C0008B5024B1B68DB68019308BD3C02030008
:10424C0008B5024B1B681B69019308BD3C020300B7
:10425C0008B5024B1B685B69019308BD3C02030067
:10426C0008B5024B1B689B69019308BD3C02030017
:10427C0008B5024B1B68DB69019308BD3C020300C7
:10428C0008B5024B1B681B6A019308BD3C02030076
:10429C0008B5024B1B689B6A019308BD3C020300E6
:1042AC0008B5024B1B681B6C019308BD3C02030054
:1042BC0008B5024B1B681B6A019308BD280203005A
:1042CC0008B5024B1B685B6A019308BD280203000A
:1042DC0008B5024B1B689B6A019308BD28020300BA
:1042EC0008B5024B1B68DB6A019308BD280203006A
:1042FC0008B5024B1B681B6B019308BD2802030019
:10430C0008B5024B1B685B6B019308BD28020300C8
:10431C0008B5024B1B681B6C019308BD28020300F7
:10432C0008B5024B1B68DB69019308BD3002030022
:10433C0008B5024B1B681B6A019308BD30020300D1
:10434C0008B5024B1B681B68019308BD4C020300A7
:10435C0008B5024B1B685B68019308BD4C02030057
:10436C0008B5024B1B681B69019308BD4C02030086
:10437C0008B5024B1B685B69019308BD4C02030036
:10438C0008B5024B1B689B69019308BD4C020300E6
:10439C0008B5024B1B68DB69019308BD4C02030096
:1043AC0008B5024B1B681B6A019308BD4C02030045
:1043BC0008B5024B1B685B68019308BD2002030023
:1043CC0008B5024B1B68DB6A019308BD2002030091
:1043DC0008B5034B1B68D3F88830019308BD000067
:1043EC002002030008B5034B1B68D3F894300193EB
:1043FC0008BD00002002030008B5024B1B685B6877
:10440C00019308BD4002030008B5024B1B689B6872
:10441C00019308BD4002030008B5024B1B68DB6822
:10442C00019308BD4002030008B5024B1B681B69D1
:10443C00019308BD4002030008B5024B1B685B6981
:10444C00019308BD4002030008B5024B1B689B6931
:10445C00019308BD4002030008B5024B1B68DB69E1
:10446C00019308BD4002030008B5024B1B681B6A90
:10447C00019308BD4002030008B5024B1B681B6B7F
:10448C00019308BD4002030008B5024B1B685B6B2F
:10449C00019308BD4002030008B5024B1B681B6C5E
:1044AC00019308BD4002030008B5024B1B685B6C0E
:1044BC00019308BD4002030008B5024B1B68DB6B7F
:1044CC00019308BD4402030008B5024B1B681B682E
:1044DC00019308BD1C02030008B5024B1B685B6806
:1044EC00019308BD1C02030008B5024B1B681B6C32
:1044FC00019308BD1C02030008B5024B1B685B6CE2
:10450C00019308BD1C020300002240681146FFF70E
:10451C00ABBF002240681146FFF7B6BF40680022CF
:10452C00FFF7AABF4068002281F00101FFF794BF9A
:10453C00002340681A461946FFF786BF00234068DF
:10454C001A461946FFF778BF002240681146FFF75C
:10455C006BBF002240681146FFF756BF406800222F
:10456C000221FFF759BF002340681A46FFF744BFEA
:10457C00024B03225A60024A1A607047B8E60320C5
:10458C00AC500B0010B5044608462170FFF7C8FE6E
:10459C0000236360204610BD054B02221A60054BB8
:1045AC00054A9A600020C3E90000FFF701BF00BF75
:1045BC00CCE60320C0E603200000FFFF02480023E6
:1045CC000360FFF725BE00BFD0E60320F8B5064612
:1045DC000D468F180024BD420CD0336815F8011B12
:1045EC009B6830469847031E01DB1C44F3E7002C04
:1045FC0008BF1C462046F8BD13B50446084659B101
:10460C00019100F0CDFC23680199DB68024620463D
:10461C0002B0BDE81040184702B010BD08B5FFF756
:10462C00EBFF08BD03689B68184738B50D2105469C
:10463C00FFF7F8FF0A2104462846FFF7F3FF204452
:10464C0038BD30B58BB00023012A8DF8243098BFCB
:10465C000A2209AC0D46B1FBF2F101FB125303F037
:10466C00FF03092B94BF30333733DBB2AA4204F873
:10467C00013DEFD92146FFF7BFFF0BB030BD000065
:10468C00014B024A1A607047D4E60320E0500B003D
:10469C00024B1A68024B1A60704700BF34E60320C5
:1046AC00D8E603208A4210B507D0441A0298C01AE3
:1046BC004443501A94FBF0F0184410BD014B0022F7
:1046CC009A607047DCE60320014B1860704700BF0E
:1046DC0038E6032008B50B4B43B100F067F90368CB
:1046EC001B699847002801DDAFF30080064B43B1EE
:1046FC0000F0AAFB03681B699847002801DDAFF3A3
:10470C00008008BD000000000000000008B5FFF7A5
:10471C00E1FFFFF775FD014B186008BD40E7032072
:10472C000548064A064908B5121A00F0F5FB054B78
:10473C00054A1A6008BD00BF00F4032004F40320EE
:10474C00F4520B0000F403201E1C279A07B500231B
:10475C0000931A466FF07701FFF744FE03B05DF843
:10476C0004FB000007B543880A2B08D0502B0BD153
:10477C00094B1B684BB103B05DF804EB1847FFF70E
:10478C00E5FF03B05DF804FB002300931A466FF0BD
:10479C007701FFF727FEF4E7F0E6032010B5124887
:1047AC000021FFF7A9FE114B1A68114B9A42114BCD
:1047BC000CBF012200221A7001D0FFF7B1FFFFF7E6
:1047CC0017FD044600F0BEFB0B4B13B12046AFF3B4
:1047DC00008000210848FFF76FFEBDE81040074835
:1047EC000021FFF7F5BD00BFD5460B0000F40320F8
:1047FC001E1C279AECE603200000000071470B00FA
:10480C00704710B518210446FFF73FFC204610BD39
:10481C00F0B5037D062B8DB00E4600F104074FF06A
:10482C00000412D000F1080515F8011D0A223046CB
:10483C00FFF707FFAF42044419D0002CF4D02E210F
:10484C003046FFF7EFFE0444EEE72F236A46394665
:10485C000A208DF80040FFF7E3FC684600F0A0FB4F
:10486C0033680246DB686946304698470446204662
:10487C000DB0F0BD10B5054B0446112240F8043BB9
:10488C00002100F057FB204610BD00BF08510B0063
:10489C000346074A10B543F8042B01F1100251F8F6
:1048AC00044B43F8044B9142F9D10A781A7010BDAD
:1048BC0008510B0010B59DF8084044EA032343EA65
:1048CC00024242EA016104234160037510BD0000FD
:1048DC0007B5064B0360CB7800938B784A78097840
:1048EC00FFF7E8FF03B05DF804FB00BF08510B00B5
:1048FC00417470477047704708B50021007CFFF782
:10490C003FFD40EAE07008BD08B50121007CFFF7CF
:10491C0037FD40EAE07008BD08B5007CFFF728FDC4
:10492C0020EAE07008BD08B5007CFFF719FD20EA0D
:10493C00E07008BD13B50446007C0191FFF718FD2B
:10494C000028019901DC607C20B1207CFFF720FD60
:10495C0020EAE07002B010BD007CFFF721BD10B55D
:10496C0014210446FFF791FB204610BD10B54FF4FF
:10497C007A73044608460021C4E90113044B2360F2
:10498C000123207463741146FFF7DAFC204610BD36
:10499C001C510B00007C0022FFF7DABC10B514226E
:1049AC000446002100F0C6FA204610BD10B50F4C8D
:1049BC0088B003A8FFF7F2FF2178BFF35B8F11F0EB
:1049CC0001010FD120460191FFF761FB019948B11C
:1049DC0003AA0748FFF7CAFF2046FFF75DFB05480F
:1049EC0000F094FA024808B010BD00BFF4E60320B2
:1049FC00F8E6032001490B0070474174704708B575
:104A0C00007CFFF745FC20EAE07008BD08B5007C8F
:104A1C00FFF716FC20EAE07008BD08B5007CFFF734
:104A2C001FFC40EAE07008BD08B5007CFFF710FCE5
:104A3C0040EAE07008BD007CFFF71ABC37B5457C36
:104A4C0004462DB1207C03B0BDE83040FFF7F0BB2D
:104A5C00007C0191FFF71CFC00280199F2DC284630
:104A6C0003B030BD10B514210446FFF70EFB2046F1
:104A7C0010BD000010B54FF47A7304460846114679
:104A8C000022C4E90123044B2360012320746374C6
:104A9C00FFF706FC204610BD4C510B007047F8B5D3
:104AAC00064615460C468F18BC4206D0336814F8DF
:104ABC00011B9B6830469847F6E72846F8BD007CFA
:104ACC000022FFF7F5BB007C0021FFF7F9BB007C4F
:104ADC000021FFF7FDBB007C0021FFF701BC007C2F
:104AEC000021FFF705BC10B514210446FFF7CDFAE1
:104AFC00204610BD10B54FF47A73044608460021C9
:104B0C00C4E90113034B236020741146FFF700FC2A
:104B1C00204610BD7C510B00002240681146FFF767
:104B2C0083BC002240681146FFF79EBC00224068FF
:104B3C001146FFF7A9BC40680022FFF79DBC4068F6
:104B4C00002281F00101FFF787BC002340681A4660
:104B5C001946FFF779BC002340681A461946FFF73F
:104B6C006BBC002240681146FFF74EBC4068002227
:104B7C000221FFF751BC002340681A46FFF73CBCEA
:104B8C00024B04225A60024A1A6070470CE7032059
:104B9C00A4510B00002340681A46FFF72DBC406857
:104BAC0000220221FFF738BC002240681146FFF7B3
:104BBC002BBC002240681146FFF736BC002340682E
:104BCC001A461946FFF738BC002340681A461946A6
:104BDC00FFF73ABC40680021FFF75EBC406800213B
:104BEC00FFF762BC4068002281F00101FFF734BC82
:104BFC0040680022FFF740BC002240681146FFF7D6
:104C0C0043BC002240681146FFF72EBC2DE9F0434F
:104C1C0095B014460D460746FFF72CFE00211C22CA
:104C2C000DA8009100F086F940230C9320466B46AA
:104C3C000CAA0021FFF7A4FA044600284BD1024627
:104C4C0001216868FFF7F0FB022180462246686864
:104C5C00FFF7EAFB009E81462146002E3BD000293F
:104C6C0039D17368022B03D00A2B11D0F669F4E703
:104C7C00B8F1000FFAD0716906A8043107ADFFF73F
:104C8C0027FE0FCD3C1D0FC42B6823704146EDE76A
:104C9C00B9F1000FEAD07469102201A800F04AF9AA
:104CAC0006238DF8143001AD04F10803183418688C
:104CBC0059682A4603C20833A3421546F7D101A905
:104CCC0006A807ADFFF7E4FD0FCD3C1D0FC42B6804
:104CDC0023704946CAE70098FFF74AFA384615B0E0
:104CEC00BDE8F083024B034A1A6000225A607047F9
:104CFC0014E70320E0510B00232813B502D9002040
:104D0C0002B010BDA0F10B03022B1AD8174C21785E
:104D1C00BFF35B8F11F001010BD120460191FFF71E
:104D2C00B6F9019928B11248FFF72CFC2046FFF781
:104D3C00B3F90F4B1878FFF7FBFA0028DFD10120ED
:104D4C00DEE7012809D800F0BBF80021007CFFF752
:104D5C00D7FA80F00100C0B2D2E709380128EED8AA
:104D6C0000F072F8007CFFF78BFAF2E71CE70320E7
:104D7C0020E70320232838B504460D460AD8FF291E
:104D8C0008D0FFF7B9FF28B129462046BDE83840C6
:104D9C00FFF706BA38BD0D2810B504469CBF0E347B
:104DAC00A4B22046FFF7A8FF50B103212046FFF71D
:104DBC00EFF9032804D12046BDE81040FFF708BAEC
:104DCC00002010BD38B504460D46FFF795FFF0B135
:104DDC0004212046FFF7DCF9042805D1A9B22046AE
:104DEC00BDE83840FFF7ECB902212046FFF7D0F9B7
:104DFC0002280CD12046FFF7DBF9012801D004284A
:104E0C0005D129462046BDE83840FFF7E9B938BD41
:104E1C007047000038B5044614252A46002100F0DE
:104E2C0089F825804025074925812846258200F0F0
:104E3C006BF804496060284600F066F8E060204694
:104E4C0038BD00BF14520B0030B50E4D2978BFF39E
:104E5C005B8F11F0010487B011D12846FFF717F9C9
:104E6C0068B101A8FFF7D6FF01AA21460648FFF753
:104E7C0001FE2846FFF710F9044800F047F80248F5
:104E8C0007B030BD28E703202CE703201D4E0B0094
:104E9C007047000038B52025142304460360856054
:104EAC0005610649284600F02FF804496060284641
:104EBC0000F02AF8E060204638BD00BF14520B0009
:104ECC0030B50E4D2978BFF35B8F11F0010487B01C
:104EDC0011D12846FFF7DBF868B101A8FFF7DAFF1C
:104EEC0001AA21460648FFF705FE2846FFF7D4F82D
:104EFC00044800F00BF8024807B030BD44E703202B
:104F0C0048E703209D4E0B00FFF7BDB80023014678
:104F1C001A46184600F04CB80A44914200F1FF338F
:104F2C0000D1704710B511F8014B03F8014F9142B5
:104F3C00F9D110BD02440346934200D1704703F8E7
:104F4C00011BF9E738B5104B1D68AB6B0446B3B9C0
:104F5C001820FFF7B9FA0246A86320B90B4B0C488E
:104F6C004221FFF7C1FA0B490B4BC0E900130B4B65
:104F7C0083600B23838100210120C2E90401AB6B08
:104F8C0000221C615A6138BD38E6032015520B0013
:104F9C002C520B000E33CDAB34126DE6ECDE05005B
:104FAC00034613F8012B002AFBD1181A013870475D
:104FBC002DE9F843DFF8B8800646D8F800001F4604
:104FCC000D46914600F056F8254B1C6834B9254C1B
:104FDC001C60254B13B11B68C4F8883063681F2B09
:104FEC0007DDD8F8000000F047F84FF0FF30BDE8BF
:104FFC00F8834EB3D4F8880088B91C4B23B9D8F881
:10500C00000000F038F8F0E74FF48470FFF75CFA1A
:10501C000028F4D00023C0E94033C4F8880063684A
:10502C0040F8239001229A4000EB8301D0F8003124
:10503C001343C0F80031022EC1F8807002BFD0F8C3
:10504C0004311343C0F804316368D8F800005A1CCB
:10505C000233626044F8235000F00EF80020C6E7DB
:10506C00E8E703205CE7032000000000D5440B00B8
:10507C009CE6032070477047704700001D400B00F2
:10508C0059400B0081400B0085400B0000000000D4
:10509C006D6178202D200000000000000000000051
:1050AC0073450B0069450B005F450B0055450B0024
:1050BC0049450B003D450B00E14B0B00E94B0B0048
:1050CC0031450B0029450B001F450B0015450B0006
:1050DC00194C0B006170700025592D256D2D256420
:1050EC005425483A254D3A2553257A00617363744B
:1050FC00696D650000000000000000001D480B00F9
:10510C000D480B000F480B000000000000000000D1
:10511C0003490B006B490B0041490B00D9450B00AF
:10512C0033490B0005490B0015490B0065490B0071
:10513C0025490B00FD480B0000000000000000009A
:10514C00054A0B00714A0B00494A0B00D9450B006C
:10515C00194A0B00354A0B00274A0B00434A0B0037
:10516C00074A0B000B4A0B00000000000000000077
:10517C00A94A0B00F34A0B00CB4A0B00AB4A0B00BD
:10518C00D34A0B00DB4A0B00E34A0B00EB4A0B0043
:10519C000000000000000000834B0B00794B0B005B
:1051AC006F4B0B00254B0B00634B0B00574B0B004D
:1051BC00E14B0B00E94B0B004B4B0B00434B0B0033
:1051CC00394B0B002F4B0B00194C0B00000000004F
:1051DC0000000000A14B0B00AB4B0B00B54B0B00C0
:1051EC00BF4B0B00C94B0B00D54B0B00E14B0B001D
:1051FC00E94B0B00F14B0B00FD4B0B00054C0B006E
:10520C000F4C0B00194C0B00005245454E54206DB1
:10521C00616C6C6F632073756363656564656400B2
:10522C002F6D6E742F776F726B73706163652F7750
:10523C006F726B73706163652F4743432D31302D53
:10524C00706970656C696E652F6A656E6B696E73DB
:10525C002D4743432D31302D706970656C696E6537
:10526C002D34385F32303230313132345F313630B8
:10527C00363138303634312F7372632F6E65776C5C
:10528C0069622F6E65776C69622F6C6962632F732C
:10529C0074646C69622F72616E642E63000000008E
:1052AC0055410B007D450B00A5450B00C9450B0076
:1052BC008D460B009D460B00C9460B008D4B0B0019
:0452CC00F14C0B0096
:1052D000040000001400000003000000474E5500C9
:1052E0004DC737DE7942D36EC5851F6F4272AA392A
:0452F000DB8A38D746
:0452F40000000000B6
:1052F800F8500B003CE6032000000000000000000E
:105308000000000000000000000000000000000095
:105318000000000000000000000000000000000085
:105328000000000000000000000000000000000075
:105338000000000000000000000000000000000065
:105348000000000000000000000000000000000055
:0C5358000000000000000000ECE7032053
:10536400FFFFFFFF00000102030405060708090A06
:105374000B0C0D0E0F101112131415161718191A01
:085384001B1C1D1E1F20280048
:04538C007856341209
:04000003B000401CED
:00000001FF
